:020000040800F2
:100000001805002001010008111700083F0F000823
:100010000D1700082F0B00080D2500080000000038
:10002000000000000000000000000000F91F0008B0
:100030003B0B00080000000099170008E5200008AD
:100040001B0100081B0100081B010008511B0008D0
:100050001B0100081B0100081B0100081B01000810
:100060001B0100081B0100081B0100081B01000800
:100070001B0100081B0100081B0100081B010008F0
:100080001B0100081B0100081B0100081B010008E0
:100090001B0100081B0100081B0100081B010008D0
:1000A0001B0100081B0100081B0100081B010008C0
:1000B0001B010008C52100081B0100081B010008E6
:1000C0001B0100081B0100081B0100081B010008A0
:1000D0001B0100081B0100081B0100081B01000890
:1000E0001B0100081B0100081B010008DFF80CD0F1
:1000F00000F018FC00480047152F000818050020E4
:100100000648804706480047FEE7FEE7FEE7FEE7B1
:10011000FEE7FEE7FEE7FEE7FEE7FEE765210008F3
:10012000ED000008F0B480EA0102D40F4200B2EB07
:10013000410F02D20246084611464A0042D0C30D82
:10014000DDB2C1F3C752AD1A202D35DAC1F3160165
:1001500041F4000204B15242C5F1200602FA06F150
:100160002A411044B3EBD05F23D0C4B1012DA0EBE2
:10017000C35009DCF0BC4FF0004202EAC352DBB2CC
:1001800000F5000000F002BB400000F1807000EBC1
:10019000C350A0F1807040EAD170490009E04908DD
:1001A00041EAC071A0EBC35000F50000400800EB2D
:1001B000C350F0BC00F0E1BA6142012202EB410100
:1001C000001BF6E7F0BC704781F00041AAE780F021
:1001D0000040A7E780EA010210B502F000434000AA
:1001E00022D04A001FD0010E01EB1261C0F356006D
:1001F000C2F3560240F4000042F40002A0FB0220C9
:1002000000047F39140400D0401C50EA124001D48D
:100210004000491EC2B20C0604EBD010401C40083E
:10022000802A02D003E0002010BD20F00100002948
:1002300000DA0020184310BD30B480EA010202F059
:10024000004530F0004221F0004013D090B1C30DC2
:10025000D40DC2F31601C0F31600E41A41F40001F4
:1002600040F400027D34914201D3641C00E0490057
:10027000002C02DA30BC002070474FF4000000234D
:10028000914201D3891A034340084FEA4101F7D153
:1002900051B1914202D14FF0004105E002D24FF03E
:1002A000010101E06FF0010103EBC450284430BCB0
:1002B00000F063BA2DE9FE4F804681EA0300C00FCB
:1002C0000C46009021F0004123F00045B8EB0200FD
:1002D000A94105D24046214690461C460B4602469F
:1002E00023F00040104347D0270DC7F30A00C3F3A3
:1002F0000A510290401A019040286BDAC3F31300B0
:1003000040F4801B0098924620B10023D2EB030AF0
:1003100063EB0B0B01985946C0F14002504600F0C8
:100320000BFA06460D4650465946019A00F013FA5C
:1003300010EB08006141002487EA115284EAE77358
:100340001A4340D0009A62B3019A012A4FEA075239
:1003500015DC001B61EB02014FF0004202EA07527C
:10036000CDE90042001C41F5801132462B4600F0D9
:100370004AFA03B0BDE8F08F40462146F9E7001B7A
:1003800061EB0201001C41F5801300185B4120184D
:10039000A2F5001747EB030140EAD570B6196D418D
:1003A00011E06D084FEA360645EAC0754FEA07527C
:1003B000001B61EB0201001C41F5801149084FEA66
:1003C00030000019514132462B4603B0BDE8F04FD2
:1003D00000F00ABA0098012240000023D0EB02028C
:1003E00063EBE073009821464FEAE074B8EB00003D
:1003F00061EB0401E9E783F000435BE781F0004132
:1004000058E72DE9FE4F81EA030404F0004421F08F
:10041000004100944FF0000B23F0004350EA010428
:100420005ED052EA03045BD0C3F30A54C1F30A5509
:100430002C44A4F2F3340194A0FB0254C1F3130141
:1004400041F48011C3F3130343F4801301FB02440E
:1004500000FB034E840A970A44EA815447EA835713
:10046000A4FB076802958D0A05FB07854FEA932CCC
:1004700004FB0C542705029D4FEA065847EA16373D
:10048000B5EB08056EEB070C870E920E47EA811755
:1004900042EA8312A7FB0201B6EB0B0164EB0004F6
:1004A0002B0D43EA0C335E1844EB1C50DA465146E0
:1004B000E7FB0201C5F313044FEA0B3343EA14537D
:1004C0004FEA0432019C43EA0603A4F10C040294AF
:1004D000009CCDE900B400F096F903B0BDE8F08FC0
:1004E00000200146F9E72DE9F04D81EA030404F00C
:1004F000004B21F0004514464FF0000A23F0004164
:1005000050EA050220D054EA01021DD0C5F30A5773
:100510000246C5F31303C1F31300C1F30A5640F4B6
:10052000801543F48013A7EB0608101BD64608F28B
:10053000FD3873EB050002D308F1010801E09218C1
:100540005B41B8F1000F03DA00200146BDE8F08DF1
:1005500000204FF48011064684460EE0171B73EB13
:10056000050705D3121B63EB050306434CEA010C98
:1005700049084FEA300092185B4150EA0107EDD17B
:1005800052EA030012D082EA040083EA050108431C
:1005900005D0101BAB4106D20122002306E0002249
:1005A0004FF0004302E06FF0010253101AEB060017
:1005B0004CEB085110EB0A0041EB0B01BDE8F04D8C
:1005C00000F012B9C10F80EAE0700844CA07962310
:1005D000002100F0DBB896230022114600F0D6B8C7
:1005E0000EB540F2334102910021CDE900110A46D7
:1005F0000B4600F008F903B000BD00F0004220F007
:100600000040C10DC0F3160040F400007F2901DA5C
:1006100000207047962903DCC1F19601C84001E033
:1006200096398840002AF4D04042704720F00040BC
:10063000C10DC0F3160040F400007F2901DA00204C
:100640007047962903DCC1F19601C840704796397E
:100650008840704700F0004230F000400AD0C10DE1
:1006600001F56071C0F3160042EA0151C20840076B
:1006700011437047002001467047000030B5041E4A
:1006800071F1000404DB4FF00044404264EB0101CF
:10069000141E73F1000405DB1C464FF00043524268
:1006A00063EB0403994208BF904230BD01F0004360
:1006B00030B421F0004150EA010206D00A0DA2F543
:1006C0006072C1F31301002A02DC30BC00207047C5
:1006D000440F44EAC104C100E01830BC00EBC25032
:1006E00000F04BB8002801DBC0F10040002901DB1D
:1006F000C1F1004181427047002801DBC0F1004098
:10070000002901DBC1F100418842704730B50B463A
:10071000014600202022012409E021FA02F59D4231
:1007200005D303FA02F5491B04FA02F52844151E05
:10073000A2F10102F1DC30BD202A04DB203A00FAEC
:1007400002F1002070479140C2F1200320FA03F328
:10075000194390407047202A06DBCB17203A41FA14
:1007600002F043EAE07306E041FA02F3D040C2F13E
:10077000200291400843194670470029A8BF7047DE
:10078000401C490008BF20F00100704710B4B0FAC7
:1007900080FC00FA0CF050EA010404BF10BC704762
:1007A00049B1CCF1200421FA04F411FA0CF118BF7C
:1007B000012121430843A3EB0C01CB1D4FEA00614B
:1007C0004FEA102042BF002010BC704700EBC3501E
:1007D00010440029A4BF10BC7047401C490008BF4A
:1007E00020F0010010BC704710B5141E73F1000416
:1007F00008DA401C41F1000192185B411A4301D113
:1008000020F0010010BD2DE9F04D92469B4611B13C
:10081000B1FA81F202E0B0FA80F220329046FFF79E
:100820008BFF04460F4640EA0A0041EA0B0153469B
:100830005A46084313D0114653EA010019D0C8F1B3
:100840004002504600F080F805460E465046594694
:100850004246FFF771FF084305D0012004E020461F
:100860003946BDE8F08D0020054346EAE0762C438A
:1008700037430A986305E40AA0EB08000022FD0A4A
:1008800044EA47540A3002D500200146E9E7010551
:1008900010196941DDE9084500196941BDE8F04DCD
:1008A000A2E770B521F0004303430CD0C1F30A5511
:1008B0000024D5EB040564EB0403D617AD1AB3414D
:1008C00002DB0020014670BD201841EB025170BDD3
:1008D0000EB5C10F80EAE0700844CA07002140F25B
:1008E00033438DE80E000A460B46FFF78CFF03B03A
:1008F00000BD000030B5041E71F1000404DB4FF0B0
:100900000044404264EB0101141E73F1000405DB56
:100910001C464FF00043524263EB04038B4208BF76
:10092000824230BD064C074D06E0E06840F001030E
:1009300094E8070098471034AC42F6D3FFF7DAFB8F
:10094000C8310008E8310008202A04DB203A21FAE7
:1009500002F00021704721FA02F3D040C2F12002D8
:1009600091400843194670472DE9F0473148008807
:100970003149324A127841F8220008462F49097855
:1009800030F821001FFA80FA2C480078401C2B49CF
:100990000870084600780A2190FBF1F201FB120072
:1009A00026490870244800682349496808442249B8
:1009B000896808442049C96808441F4909690844EE
:1009C0001D49496908441C49896908441A49C9698B
:1009D00008441949096A08441749496A08440A2120
:1009E000B0FBF1F01649086008460068824506D25F
:1009F00008460078A0EB0A001249087005E010488C
:100A00000078AAEB00000F4908700E480078FFF745
:100A1000E7FD06464FF033320B4BFFF7F2FC04467E
:100A200000220A4BFFF746FC8046FFF73FFEBDE879
:100A3000F087000042000020F0000020300000207D
:100A40002C000020310000203333D33F0000E03F72
:100A500010B5012000F0E6FE002000F0E3FE10BD1E
:100A600008B5014600200090034800900098084413
:100A700000900098008808BD006C004008B5002276
:100A80000092044A0092009A02440092009A116077
:100A900008BD0000006C00400020064908700648B0
:100AA00006490860002006490860064908600649B2
:100AB00008607047480000200000A0414C00002062
:100AC00050000020540000205800002070B5064659
:100AD0000C46154600F016FBAE2000F0E5FA00F0DB
:100AE00059FB18B100F032FB012070BD304600F018
:100AF000DBFA00F04FFB00F005FBAF2000F0D4FA6A
:100B000000F048FB0DE0012D04D1002000F096FA22
:100B1000207003E0012000F091FA2070681EC5B239
:100B2000641C002DEFD100F011FB0020DDE700BFB9
:100B3000FEE708600023136070477047044A12689C
:100B4000111800BF024A12688A42FBD370470000A6
:100B500000000020F8B504460020384D00902D78A4
:100B6000364EF678AB19354DAA78E978A87800F0BA
:100B700079F9002000902D78304EF678AB192F4D82
:100B80006D782E4EB678AA192C4D2D782B4EF6780E
:100B9000A9192A4DA87800F065F9782C4CDA284676
:100BA00000782946C9780844001B25490880284652
:100BB000407824490988884229DD2846007921495E
:100BC000098808441F4908802846C08800902D786D
:100BD0001A4EF678AB190D462D88AAB2174DE97852
:100BE000184D2D88A8B200F03DF91448008913492A
:100BF00000900979134A1288511A88B210490B885B
:100C000010490A881049098800F02CF910E00B48B7
:100C100080780C49088009480089009008480388BA
:100C200008460288084801880648008800F01AF93A
:100C30000348008804490880F8BD00003200002005
:100C40003C000020400000203E0000202DE9F14F34
:100C500013484068124908600868FFF7FBFC064625
:100C6000104A114BFFF7CDFB04460D460098FFF7E5
:100C7000F1FC06460D4A0E4BFFF7C3FB80462246A9
:100C80002B46FFF717FB8246FFF710FD044948602B
:100C90000A4651681068FFF745FABDE8F88F000072
:100CA0005C0000205CDDC150084EE03F48457C5EA2
:100CB000EF63CF3F2DE9F0410246002500260020DA
:100CC00000230024002791F803C00CF00F0591F8D1
:100CD00003C00CF0100CBCF1000F03D091F802C05F
:100CE0004CEA050591F800C0BCF1000F31D0146842
:100CF00000202BE04FF0010C0CFA00F3B1F800C01B
:100D00000CEA03069E4220D183004FF00F0C0CFA30
:100D100003F7BC4305FA03FC4CEA040491F803C052
:100D2000BCF1280F06D14FF0010C0CFA00FCC2F800
:100D300014C00AE091F803C0BCF1480F05D14FF090
:100D4000010C0CFA00FCC2F810C0401C0828D1D3DA
:100D50001460B1F800C0BCF1FF0F34DD546800200E
:100D60002EE000F1080C4FF0010808FA0CF3B1F87E
:100D700000C00CEA03069E4221D183004FF00F0C05
:100D80000CFA03F7BC4305FA03FC4CEA040491F89F
:100D900003C0BCF1280F05D100F1080C08FA0CF8CB
:100DA000C2F8148091F803C0BCF1480F07D100F1DC
:100DB000080C4FF0010808FA0CF8C2F81080401C2B
:100DC0000828CED35460BDE8F0810000F0B50A4693
:100DD000002300240021002500F00046B6F1004F5A
:100DE00002D11D4EF16901E01B4E7168C0F303454D
:100DF00083B200F44016B6F5401F08D121F07061AF
:100E0000154E766826F07066134F7E6012E000F48F
:100E10008016B6F5801F06D1032606FA05F4A14315
:100E200041F0706106E0460D360103FA06F6B14363
:100E300041F0706122B1460D360103FA06F63143E6
:100E400000F00046B6F1004F02D1034EF16101E01F
:100E5000014E7160F0BD000000000140416170472B
:100E6000016170472DE9FF4F82B0804689464946AF
:100E7000404600F0CEFB0498A0EB08050598A0EBD7
:100E80000906002D02DB0120019003E04FF0FF3046
:100E900001906D42002E02DB0120009003E04FF034
:100EA000FF30009076424FEA450A4FEA460BB542C2
:100EB00019DDABEB0504002712E0494640460F9AC6
:100EC00000F02DF8002C05DBA4EB0A040098484440
:100ED0001FFA80F95C44019840441FFA80F87F1C97
:100EE000AF42EADD18E0AAEB0604002712E049460B
:100EF00040460F9A00F013F8002C05DBA4EB0B041E
:100F0000019840441FFA80F85444009848441FFA5E
:100F100080F97F1CB742EADD06B0BDE8F08F70B5FE
:100F200004460D461646681C83B2601C82B22946F0
:100F3000204600F043FB304600F0E2F970BD00BFF0
:100F4000FEE7000000B500200E4908600E4800686A
:100F500020F0F0000C4908600846006840F03000BE
:100F6000086000200949C1F8A40100F011F801202F
:100F70000449086000F00CF800200449C1F8A00101
:100F800000BD0000A0812142040C014000802142EC
:100F90005A2000E000BF011EA0F10102D0B2F9D139
:100FA0007047000008B50121082000F02BFC4FF429
:100FB0004070ADF8000003208DF8020010208DF87D
:100FC000030069460748FFF775FE4FF44071054876
:100FD000FFF746FF0120044908600449C1F8A40155
:100FE00008BD0000000C0140A08121420080214288
:100FF00000B500200E4908600E48006820F0F0009F
:101000000C4908600846006840F030000860012084
:101010000949C1F8A401FFF7BBFF0120044908609A
:10102000FFF7B6FF00200449C1F8A00100BD000091
:10103000A0812142040C01400080214230B50446C9
:1010400000231648006820F0F000144908600846A4
:10105000006840F040000860002514E000201049BE
:101060000860FFF795FF01200E49C1F8A00158065E
:10107000030E0B487C38006808B1581CC3B2FFF758
:1010800087FF681CC5B2082DE8DB14B9FFF7B0FF75
:1010900001E0FFF757FF184630BD0000040C014087
:1010A000A08121420080214210B503461248006809
:1010B00020F0F000104908600846006840F0300059
:1010C000086000200D490860002412E0D8090B498F
:1010D000091D08605806030E01200949C1F8A00146
:1010E000FFF756FF002005490860FFF751FF601C1D
:1010F000C4B2082CEADB10BD040C0140A0812142DF
:101100000080214200B50E48006820F0F0000C4934
:1011100008600846006840F0300008600120094976
:1011200008600949C1F8A001FFF732FF0020054916
:101130000860FFF72DFF00200349C1F8A00100BDA2
:10114000040C0140A48121420080214200B50E48D8
:10115000006820F0F0000C4908600846006840F084
:10116000300008600020094908600949C1F8A4015D
:10117000FFF70EFF0120054908600549C1F8A401E9
:10118000FFF706FF00BD0000040C0140A0812142D2
:101190000080214200B500231448006820F0F000D0
:1011A000124908600846006840F0400008600120CD
:1011B0000F490860FFF7ECFE01200E49C1F8A001BD
:1011C000FFF7E6FE07E0581CC3B2FA2B03DDFFF77A
:1011D000BDFF012000BD0648803800680028F2D11C
:1011E0000349091F086000BFF4E70000040C014038
:1011F000A4812142008021420146CA1701EB92726C
:101200009210A1EB820292B9642091FBF0F200FBF4
:10121000121050B94FF4C87091FBF0F200FB12109D
:1012200008B9012070470020FCE70120FAE7002000
:10123000F8E7000008B501210C2000F0E3FA0420D3
:101240008DF8030003208DF802000120ADF80000A6
:1012500069460C48FFF72EFD0820ADF800006946EE
:101260000948FFF727FD1020ADF800006946064841
:10127000FFF720FD2020ADF8000069460248FFF787
:1012800019FD08BD00080140000C014008B501210E
:101290000C2000F0B7FA03208DF8020010208DF822
:1012A00003002020ADF8000069461348FFF702FD57
:1012B0008020ADF8000069460F48FFF7FBFC0220D4
:1012C000ADF8000069460D48FFF7F4FC0420ADF8C6
:1012D000000069460848FFF7EDFC1020ADF800005B
:1012E00069460548FFF7E6FC0820ADF800006946AE
:1012F0000148FFF7DFFC08BD00080140000C014079
:1013000010B504460220084908601020074908600B
:10131000201200F079FDE0B200F076FD02200249D3
:10132000091F086010BD0000140C014010080140A6
:1013300070B506469F237F220021084600F03EF943
:101340002C2000F085F9002408E0002503E0304659
:10135000FFF7D6FF6D1CA02DF9D3641C802CF4D3AD
:1013600070BD000010B5FFF791FF00F015F91120D6
:1013700000F06EF97820FFF7E1FBB12000F068F98A
:10138000012000F051F92C2000F04EF92D2000F042
:101390004BF9B22000F05CF9012000F045F92C2057
:1013A00000F042F92D2000F03FF9B32000F050F991
:1013B000012000F039F92C2000F036F92D2000F042
:1013C00033F9012000F030F92C2000F02DF92D2008
:1013D00000F02AF9B42000F03BF9072000F024F9CE
:1013E000C02000F035F9A22000F01EF9022000F024
:1013F0001BF9842000F018F9C12000F029F9C5205C
:1014000000F012F9C22000F023F90A2000F00CF9D4
:10141000002000F009F9C32000F01AF98A2000F03A
:1014200003F92A2000F000F9C42000F011F98A2005
:1014300000F0FAF8EE2000F0F7F8C52000F008F907
:101440000E2000F0F1F8362000F002F9C02000F084
:10145000EBF8E02000F0FCF80F2000F0E5F81A208F
:1014600000F0E2F80F2000F0DFF8182000F0DCF8C0
:101470002F2000F0D9F8282000F0D6F8202000F026
:10148000D3F8222000F0D0F81F2000F0CDF81B2068
:1014900000F0CAF8232000F0C7F8372000F0C4F8A5
:1014A000002000F0C1F8072000F0BEF8022000F094
:1014B000BBF8102000F0B8F8E12000F0C9F80F20C8
:1014C00000F0B2F81B2000F0AFF80F2000F0ACF8ED
:1014D000172000F0A9F8332000F0A6F82C2000F027
:1014E000A3F8292000F0A0F82E2000F09DF830206D
:1014F00000F09AF8302000F097F8392000F094F8C6
:101500003F2000F091F8002000F08EF8072000F056
:101510008BF8032000F088F8102000F085F82A20CE
:1015200000F096F8002000F07FF8002000F07CF832
:10153000002000F079F87F2000F076F82B2000F0F2
:1015400087F8002000F070F8002000F06DF800200F
:1015500000F06AF89F2000F067F8F02000F078F8BB
:10156000012000F061F8F62000F072F8002000F091
:101570005BF83A2000F06CF8052000F055F82920BF
:1015800000F066F80420034908604FF6FF70FFF78B
:10159000CFFE10BD1008014010B5082006490860B4
:1015A0006420FFF7CBFA08200349091F08603220A6
:1015B000FFF7C4FA10BD000014080140F0B504465E
:1015C0000D4616461F462A2000F042F8002000F083
:1015D0002BF8A11CC8B200F027F8002000F024F876
:1015E000B11CC8B200F020F82B2000F031F8002028
:1015F00000F01AF8691CC8B200F016F8002000F0DC
:1016000013F8791CC8B200F00FF82C2000F020F875
:10161000F0BD30B504460D462B46224629462046ED
:10162000FFF7CCFF30BD000010B50446022006498C
:101630000860102005490860204600F0E5FB022004
:101640000149091F086010BD140C01401008014039
:1016500010B50446022006490860102005490860BC
:10166000204600F0D1FB02200149091F086010BD8F
:10167000140C01401408014010B50F48017800789F
:10168000401C0D4A107011B101290AD104E040211B
:101690000A4800F033F804E04021084800F026F83A
:1016A00000BF00BF0449087800EBD0714910A0EBDF
:1016B0004101014A117010BD14000020000C0140CE
:1016C00008B50121082000F09DF810208DF80300D6
:1016D00003208DF802004020ADF800006946024862
:1016E000FFF7E8FA08BD0000000C014070B50446A1
:1016F0000D4629462046FFF7B3FB70BD70B5044682
:101700000D4629462046FFF7A9FB70BD00BFFEE746
:101710007047000070B5002100230F22C47804B385
:10172000154C246804F4E064C4F5E064210AC1F1B6
:101730000403CA40447804FA03F184781440214336
:1017400009010E4C0678A155047804F01F05012408
:10175000AC4005786D11AD0005F1E025C5F80041FC
:1017600009E0047804F01F050124AC40044D06781C
:10177000761145F8264070BD0CED00E000E400E075
:1017800080E100E010B501F00FF910BD01490862D9
:101790007047000000000E42704700000020094919
:1017A0000870094908600949086009490860094941
:1017B00008600949086008200849087000200849A5
:1017C000086070476B00002070000020740000204B
:1017D000780000207C000020800000208400002091
:1017E0006400002029B1064AD2690243044BDA6141
:1017F00004E0034AD2698243014BDA61704700007A
:101800000010024029B1064A92690243044B9A61D2
:1018100004E0034A92698243014B9A6170470000D9
:101820000010024001490860704700004004424235
:1018300030B500210022002400232D4D6D6805F0F5
:101840000C0121B1042905D0082923D105E0294D37
:10185000056022E0274D05601FE0254D6D6805F409
:101860007012234D6D6805F48034022505EB924219
:101870001CB9214D554305600BE01D4D6D6805F405
:1018800000351DB11C4D5543056002E0194D55430F
:10189000056002E0174D056000BF00BF144D6D6884
:1018A00005F0F0010909154D6B5C0568DD404560E8
:1018B0000F4D6D6805F4E061090A104D6B5C4568D9
:1018C000DD4085600A4D6D6805F46051C90A0B4D15
:1018D0006B5C4568DD40C560054D6D6805F44041B1
:1018E000890B074D6B5CC568B5FBF3F5056130BD31
:1018F0000010024000127A0000093D00180000208C
:101900002800002010B501460022002300204A11C3
:10191000012A02D1094C236806E0022A02D1074CB1
:10192000236A01E0054C636A01F01F020124944020
:101930001C400CB1012000E0002010BD001002404E
:101940000149086070470000800442420149086074
:10195000704700003C0442420249096A0143014ABF
:101960001162704700100240024909888143014A10
:1019700011807047042800400348008840F01000A0
:10198000014908807047000004280040034800888F
:101990004FF6EF7108400149088070470428004065
:1019A00070B500260024002500F07AF80646384875
:1019B000B6FBF0F437480088A0423CD035490C8093
:1019C00040F2B27510E02846FFF716FC40B1B4F5BE
:1019D000B77F02D3A4F5B77404E0681C85B206E0B3
:1019E000A4F26D14681C85B2B4F5B67FEBD800BFC5
:1019F00029488580002516E027498888FFF7FCFBE9
:101A000030B1012D04D11D2C01D31D3C09E00CE0A7
:101A10002248405DA04203D82048405D241A00E0DF
:101A200003E0681C85B21C2CE6D200BF681C1A4972
:101A30008871601CC8711648B6FBF0F100FB116498
:101A40004FF46160B4FBF0F0134908704FF461602B
:101A5000B4FBF0F100FB11403C21B0FBF1F00E496A
:101A600048704FF46160B4FBF0F100FB11403C2181
:101A7000B0FBF1F201FB1200074988700B46DA79DE
:101A80009979988800F028F803490872002070BD01
:101A90008051010016000020E40000207831000889
:101AA000002103480188001F008841EA0040704778
:101AB0001C28004001460020064A12880A40D0B285
:101AC000044A121F12880A4012B108B1012000E036
:101AD0000020704704280040F0B503460C46154628
:101AE000642093FBF0F0C6B2642093FBF0F700FB98
:101AF0001730C1B2132E02DD01F16400C1B20846F5
:101B0000CF1701EB977701EBA707BAB2072092FB3B
:101B1000F0F700FB172082B25719601EDFF82CC0C7
:101B20001CF80000384482B2CF1701EB9777BF1042
:101B3000A1EB87071FB9032C01DA501E82B20720E0
:101B400092FBF0F700FB1720C0B2F0BD6C3100082B
:101B500010B50120FFF7AEFF08B1FFF721FF02200B
:101B6000FFF7A8FF20B10220FFF7FEFEFFF718FFE6
:101B70000520FFF7F9FE00F003F910BD29B1064A70
:101B800012880243044B1A8004E0034A12888243FD
:101B9000014B1A8070470000002800401CB500244B
:101BA00001214FF0C050FFF71DFE0120FFF7EEFDB1
:101BB0000120FFF7C5FE04E0601CC4B20A20FEF756
:101BC000BDFF6120FFF79EFE08B9FA2CF4DBFA2C6A
:101BD00001DB01201CBD0420FEF742FF45F250014D
:101BE00088422CD0FEF734FF4FF44070FFF7B4FE6C
:101BF0000120FFF7ABFE00F0C3F800F0CBF80121A5
:101C00000846FFF7BBFF00F0BBF8FFF7B5FE4FF249
:101C1000244000F0A5F800F0B3F8002000900E2357
:101C200016220421019040F2E47000F027F8FFF73B
:101C3000ADFE45F250010420FEF720FF07E000F062
:101C4000A9F801210846FFF799FF00F099F800F084
:101C500004F8FFF7A5FE0020BCE708B503208DF8C7
:101C6000000000208DF801008DF8020001208DF8A1
:101C700003006846FFF74EFD08BD00002DE9F05F48
:101C800006460F4690469946DDE90AAB002440F22D
:101C9000B270864203DB40F63300864202DD01204B
:101CA000BDE8F09F40F2B2750AE02846FFF7A4FABB
:101CB00010B12048044401E01F480444681C85B268
:101CC000B542F2DB781EC7B2002510E01B48405D2C
:101CD00040F2A321484304EBC0143046FFF78CFACE
:101CE00018B1012D01D116480444681C85B2BD42CB
:101CF000ECDBA8F1010040F2A321484304EBC0143F
:101D0000C9EB4910C0EB092004EB0014CAEB0A1020
:101D100004EB80045C4401214FF0C050FFF762FDEA
:101D20000120FFF733FD204600F00CF800F028F802
:101D30000020B5E70085E2018033E1017831000839
:101D40008051010000B50246FFF716FE100C034952
:101D50000880091D0A80FFF719FE00BD1828004001
:101D600000B50246FFF708FEC2F3034003490880AE
:101D7000091D0A80FFF70AFE00BD00000828004088
:101D800000BF0348008800F020000028F9D0704709
:101D900004280040074800884FF6F77108400549BD
:101DA000088000BF0348008800F008000028F9D030
:101DB000704700000428004070B50446FFF7A2F900
:101DC000AE20FFF771F9FFF7E5F900B117E0204603
:101DD000FFF76AF9FFF7DEF900B110E0FFF792F9BB
:101DE000AF20FFF761F9FFF7D5F900B107E0002058
:101DF000FFF724F90546FFF7A9F9284670BDFFF75C
:101E0000A5F90020FAE700000021082114E02022B3
:101E10000B4B1A6000F080021AB180221B1F1A605F
:101E200002E08022064B1A602022054B1B1F1A601D
:101E30004206100E4A1ED1B20029E8DC70470000AD
:101E40001408014010B5FFF7ADF8FF20FFF7B4FF0D
:101E5000194908700846007811282CD16420FEF733
:101E60006DFE0821062000F063FB1620FFF7A4FF9B
:101E7000124908701720FFF79FFF114908704FF4AF
:101E80009670FEF75BFE032001F03BF9032001F0A2
:101E90002AF9012001F042F90721084601F019F959
:101EA000012001F003F9FEF7F7FD064801F030F9D3
:101EB000032000F09BFC10BD98000020990000203A
:101EC0009A000020640000202DE9F04F8BB00446FA
:101ED0008946924621462046FEF77CF905463D4854
:101EE00001682846FEF71EF93A4908604946484607
:101EF000FEF770F90546384801682846FEF712F9E2
:101F00003549086035480068401C34490860BAF11A
:101F1000000F5BD032480078401C314908700846F9
:101F20000078032852D12D480068FEF754FB804604
:101F3000414628480068FEF77FF90746FEF78AFB0E
:101F4000054600F039FECDE9040124480068FEF79B
:101F500042FB0146019020480068FEF76DF9834678
:101F6000FEF778FB074600F027FE054600221D4BD2
:101F7000FEF747FACDE90201DDE90423FEF7B3FAE3
:101F8000CDE90601FEF792FB099000200890164962
:101F90000998FEF7B1FB06D20998FEF747FB4238D5
:101FA000C0B208900AE011490998FEF7A5FB05D2D6
:101FB0000998FEF73BFB3238C0B2089001F060F898
:101FC0000B490898085C0B49087000BF0BB0BDE8CE
:101FD000F08F0000C8000020CC000020D4000020BA
:101FE000D000002000005940000084420000484218
:101FF0009C000020D8000020704710B500F002F8C7
:1020000010BD00000CB5002001900090334800681E
:1020100040F480303149086000BF3048006800F467
:10202000003000900198401C0190009818B9019868
:10203000B0F5A06FF1D12948006800F4003010B16C
:102040000120009001E0002000900098012843D179
:102050002348006840F010002149086008460068E5
:1020600020F0030008600846006840F002000860A5
:102070001A48406819494860084640684860084660
:10208000406840F4806048600846406820F47C1056
:1020900048600846406840F4E81048600846006818
:1020A00040F08070086000BF0C48006800F00070CD
:1020B0000028F9D00948406820F00300074948602B
:1020C0000846406840F00200486000BF034840688E
:1020D00000F00C000828F9D10CBD000000100240EF
:1020E0000020024007480068401C06490860064876
:1020F0000068401C0449086004480068401C03490B
:102100000860704700000020040000200C00002040
:1021100070B501460A46501EB0F1807F00D31BE027
:10212000501E4FF0E023586158170F23002804DB9E
:102130001C07250E094C255406E01C07260E084CEA
:1021400000F00F052D1F665500BF00204FF0E02363
:1021500098610720186100BF70BD000000E400E036
:1021600018ED00E010B51348006840F00100114977
:10217000086008464068104908400E494860084613
:1021800000680E4908400B4908600846006820F4C2
:10219000802008600846406820F4FE0048604FF444
:1021A0001F008860FFF729FF4FF0006004490860B6
:1021B00010BD0000001002400000FFF8FFFFF6FE17
:1021C00008ED00E010B50121054800F026F80128CF
:1021D00005D10121024800F011F8FFF7D3FA10BD34
:1021E0000004004021B1028842F08002028004E035
:1021F00002884FF67F731A4002807047CA430282FA
:10220000704721B1028842F00102028004E0028896
:102210004FF6FE731A400280704702460020138A70
:102220000B400BB1012000E0002070471AB18389F8
:102230000B43838102E083898B43838170470000D5
:10224000002202881D4B98420ED01D4B98420BD0A5
:10225000B0F1804F08D01B4B984205D01A4B9842E2
:1022600002D01A4B984204D14FF68F731A404B8814
:102270001A43174B984207D0164B984204D04FF69A
:10228000FF431A40CB881A4302808B8883850B88D2
:1022900003850A4B98420BD0094B984208D00E4B4D
:1022A000984205D00D4B984202D00D4B984201D177
:1022B0000B7A03860123838270470000002C0140C3
:1022C000003401400004004000080040000C0040C1
:1022D0000010004000140040004001400044014054
:1022E00000480140FEB504460D4601210220FFF7DB
:1022F00079FA0020ADF80600ADF80200681E80B241
:10230000ADF80400601E80B2ADF8000069461848C0
:10231000FFF796FF01211648FFF764FF01221146DF
:102320001348FFF783FF1D200121002804DB0A0763
:10233000130E104A135406E00A07160E0E4A00F058
:102340000F031B1FD65400BF1D20002809DB00F01F
:102350001F02012191404209920002F1E022C2F8DD
:10236000001100BF01210248FFF74BFFFEBD000036
:102370000004004000E400E018ED00E010B586B075
:10238000044601210420FFF73DFA01218803FFF7ED
:1023900039FA18208DF8170003208DF816004FF435
:1023A0000070ADF8140005A91148FEF783FC042065
:1023B0008DF817000002ADF8140005A90C48FEF7CF
:1023C00079FC01940C20ADF80E000020ADF80C0053
:1023D000ADF80A00ADF80800ADF8100001A90548F5
:1023E00000F024F80121034800F006F806B010BD03
:1023F000000801400038014021B1828942F40052B6
:10240000828104E082894DF6FF731A408281704711
:1024100002460020B1F5007F00D100BF13880B40B9
:102420000BB1012000E00020704700002DE9F047CB
:1024300086B005460E460024A24600BFA1460027EE
:10244000B08900B100BF2F462C8A4CF6FF700440C3
:10245000F08804432C82AC894EF6F3100440B08817
:1024600031890843718908430443AC81AC8A4FF633
:10247000FF400440B0890443AC8201A8FFF7D8F9BB
:102480001F48874202D1DDF810A001E0DDF80CA062
:10249000A88900F4004040B10AEBCA0000EB0A1022
:1024A00031684900B0FBF1F807E00AEBCA0000EB25
:1024B0000A1031688900B0FBF1F86420B8FBF0F035
:1024C00004012009642101FB1089A88900F400405F
:1024D00040B1322000EBC900B0FBF1F000F0070082
:1024E000044308E0322000EB09106421B0FBF1F056
:1024F00000F00F0004432C8106B0BDE8F087000017
:1025000000380140C1F308028280704700BFFEE737
:1025100010B5044600BF40210448FFF779FF0028AA
:10252000F9D021460148FFF7EDFF10BD003801400A
:1025300070B505460C46FEF7E5FDAE20FEF7B4FD8E
:10254000FEF728FE00B111E02846FEF7ADFDFEF7CC
:1025500021FE00B10AE02046FEF7A6FDFEF71AFEB6
:1025600000B103E0FEF7F2FD012070BDFEF7EEFDC5
:102570000020FAE70FB4054B10B503A9044A0298EE
:1025800000F084F810BC5DF814FB0000612B00081B
:10259000DC0000202DE9F0414F1E00EBC70104468E
:1025A000D1E9000115461E4637F006020DD02A4635
:1025B0003346FDF726FF7F1E04EBC703D3E9002354
:1025C000FDF778FE37F00602F1D1022F25D0042F57
:1025D00013D0062F18BFBDE8F0812A463346FDF719
:1025E00010FFD4E90A23FDF765FE2A463346FDF7BE
:1025F00008FFD4E90823FDF75DFE2A463346FDF7C0
:1026000000FFD4E90623FDF755FE2A463346FDF7C1
:10261000F8FED4E90423FDF74DFE2A463346FDF7C4
:10262000F0FED4E90223FDF745FE2A463346FDF7C6
:10263000E8FED4E90023BDE8F041FDF73BBE000011
:102640000022134610460149FDF74DBF0000F03F40
:102650000122FEF726B90022134610461146FDF767
:1026600042BF02E008C8121F08C1002AFAD1704711
:102670007047002001E001C1121F002AFBD1704702
:102680000149086070470000E00000202DE9FF4F7D
:1026900089B09B460446002506E025280BD05A4603
:1026A0000B999047641C6D1C20780028F5D10DB063
:1026B0002846BDE8F08F0027B8460122474900E0D0
:1026C000074314F8013F203B02FA03F00842F7D118
:1026D00020782E2819D114F8010F47F004072A2872
:1026E0000ED06FF02F022078A0F1300109290CD80C
:1026F00008EB880102EB410100EB0108641CF2E7E2
:102700000A98641C50F8048B0A9020780028CED0D8
:10271000642808D0692806D075281ED05A460B991F
:1027200090476D1C58E00A994FF00A0901C90A91B7
:10273000002802DA40422D2102E0390504D52B2180
:102740008DF82010012103E0F90704D02021F7E7DC
:102750008A4608AE0DE00021FAE70A994FF00A090F
:1027600001C90A91F7E74946FDF7D0FF303106F875
:10277000011D0028F7D1ADEB060000F12009780714
:1027800001D44FF00108C84502DDA8EB090000E0C4
:1027900000208046002706E008A85A46C05D0B9935
:1027A00090476D1C7F1C5745F6DB04E030205A46ED
:1027B0000B9990476D1CB8F10001A8F10108F5DCF8
:1027C00005E016F8010B5A460B9990476D1CB9F1BC
:1027D0000001A9F10109F4DC641C65E70928010086
:1027E00010B50446204600F01FF810BD10B5044691
:1027F00008480470FEF7D2FF074A111F0748FEF78A
:1028000098F9074A111F0548FEF793F90120054979
:10281000087010BD6C0000208C0000203333733F23
:10282000940000206B0000202DE9FE4F044600209C
:1028300002905448007805280CD2DFE800F0030C21
:10284000324A920000F0F2FBB0F5FA6F02D9012093
:102850004C49087092E04C4801682046FDF74CFF57
:102860000FD22046FDF7C9FE06464FF4487100F02E
:10287000E3FB0546FDF7A6FE4349086002204149F7
:10288000087000F0D3FB41490968401AB0F5FA6FAF
:1028900004D900203E4908603E49086000F0FEF877
:1028A0006CE0394801682046FDF71CFF03D2032085
:1028B000344908700CE02046FDF79FFE06464FF4B1
:1028C000487100F0B9FB0546FDF77CFE2E49086013
:1028D00054E031492046FDF725FC05462A480168A9
:1028E0002846FDF7FFFE38D20120029029480460F7
:1028F00004202449087000F099FB24490968451A0E
:102900002846FDF768FE814600214846FDF7EAFEAD
:102910001ED01F480068FDF79DFE07461F4A204B4A
:10292000FDF76FFD05460E464846FDF793FE074648
:102930004FF033321B4BFDF764FD2A463346CDE999
:102940000001FDF7B7FC8246FDF7B0FE10490860B4
:1029500000F06CFB0D49086002E002200949087094
:102960000CE000F063FB09490968401AC82802D945
:1029700001200449087000F091F800BF00BF0298E0
:10298000BDE8FE8F480000204C00002058000020C9
:1029900050000020540000200000F0419A999999BD
:1029A0009999D93F3333E33F2DE9F04700F03EFBDF
:1029B00030490968A0EB010A5046FDF711FE0746B1
:1029C00000222D4BFDF75AFE51D200F02FFB294972
:1029D000086000F0C7FB29480088FDF7FCFD0746AA
:1029E000274A111F00F0A9FB054626480088FDF77D
:1029F000F2FD0746244A111F00F09FFB814685F037
:102A000000473846FEF722F906463046FFF7E8FE53
:102A1000044600F0ADF807460021FDF76DFE14D224
:102A200002201A490870224649462846FFF74CFA08
:102A300000F09EF80746FDF7E0FD00B2144908805B
:102A400000F0B4F81349087008E010480078022834
:102A500004D101200D49087000F012FB3CB10021A7
:102A60000D480068FDF73EFE01D000F0ECFABDE82D
:102A7000F087000078000020000024404200002081
:102A80008C00002044000020940000206B000020F7
:102A9000680000206A000020640000202DE9FF5F2C
:102AA000002127480068FDF727FE30D20021254885
:102AB0000068FDF721FE2AD2234922480068FDF76D
:102AC000BBFB8046FDF7C6FD06460F461C48006866
:102AD000FDF7C0FD80464FF066321C4BFDF791FCC0
:102AE00032463B46CDE90001FDF7FDFCCDE9020190
:102AF00017480068FDF7AEFD0446DDE90223FDF747
:102B00007AFC8246FDF7D2FD114908600DE01048BD
:102B10000068FDF79FFD06460E4A0F4BFDF771FC5E
:102B20000446FDF7C3FD0A4908600C4908480068DF
:102B3000FDF7D8FD02D2094805490860BDE8FF9FAE
:102B40005400002050000020000020416666E63F4F
:102B50004C000020AE47E17A14AEEF3F0000A041E8
:102B600070B504460D46E0B2FFF7D2FC204670BDBA
:102B700070B500210A480068FDF7B4FD0ED0084882
:102B800001684FF07E50FDF757FB05460549FDF7FC
:102B900021FB04460449FDF71DFB70BD0020FCE746
:102BA0005000002000007A44000070420148007884
:102BB00070470000D80000202DE9F04DC84A0024DD
:102BC00090B0914205DA21F00043934201D805D13B
:102BD00020B110B0BDE8F04DFFF73ABDB1F5801F50
:102BE0001BDA53EA000209D0002911DA0120FFF7AD
:102BF00047FD10B0BDE8F04DFFF72DBD0220FFF7F7
:102C00003FFDFFF71DFD10B081F00041BDE8F08DE4
:102C10006FF035043622FDF744FE04EB2152C1F378
:102C20001308B049A2F2FF33414401F4801282F04C
:102C30007F6103EB225281F04051009241EA08018A
:102C40000022A94BFDF7D7FB044608F10200A74E6E
:102C5000C0F313000D467E44032867D2D6E9002353
:102C60002046FDF747FE1ED10098002802BFD6E996
:102C7000000110B0BDE8F08DFDF72AFE07460C46B6
:102C80009B4A9C4BFDF7BDFB06460D469A4A9B4B63
:102C900038462146FDF7B5FB10B032462B46BDE85D
:102CA000F04DFDF707BB4FF05532954B20462946B6
:102CB000FDF7A7FB0022934BFDF7A0FB06460F464E
:102CC00022462B4610461946FDF79BFB32463B46F3
:102CD000FDF797FB064600980F46F0B1FDF7F8FDAB
:102CE00080468A46824A834BFDF78BFB32463B4641
:102CF000FDF784FB22462B46FDF77DFB05460C467F
:102D00007D4A7E4B40465146FDF77BFB10B02A467C
:102D10002346BDE8F04DFDF76EBB0B4610B03246C2
:102D200020462946BDE8F04DFDF765BB00224FF077
:102D300080432046FDF7BEFA02460B462046294650
:102D4000FDF7D1FB06460F460098FDF7C1FDCDE922
:102D5000040132463B4610463946FDF752FB0C90C3
:102D600069480C9A4044019009910B461046FDF7C2
:102D700048FB8246024665488B46C8F151080B461F
:102D800008F5D72803217844FFF704FC52465B4638
:102D9000FDF737FB0A905E480D9152465B460421D1
:102DA0007844FFF7F7FB099B0C9AFDF72AFB844652
:102DB00001980D9B40EA080860460A9AFDF77AFAE6
:102DC00083460891B8F1000F4EDD4FF0FF322046E8
:102DD0002946FDF766FD22462B46FDF712FB80468D
:102DE00000988A4660B3DDE90401414A414BFDF792
:102DF00008FB099100905A4640465146089BFDF752
:102E000059FA32463B46FDF7FCFA099B009AFDF75A
:102E100051FA42465346FDF7F1FA22462B46FDF79A
:102E2000EAFA04460D46DDE90401334A334BFDF767
:102E3000E8FA10B022462B46BDE8F04DFDF7DBBAAC
:102E40005A464046089BFDF735FA32463B46FDF7A9
:102E5000D8FA42465346FDF7D1FA10B022462B4627
:102E6000BDE8F04DFDF7CABA009840B3DDE90401B2
:102E70001F4A204BFDF7C5FA80468A465A4620462F
:102E80002946089BFDF7B7FA32463B46FDF7B9FAEB
:102E900042465346FDF7AFFA22462B46FDF7ABFA02
:102EA00004460D46DDE90401134A144BFDF7A9FA67
:102EB00010B022462B46BDE8F04DFDF79CBA0B46FC
:102EC0005A4620462946FDF796FA32463B46FDF71C
:102ED00098FA10B022462B46BDE8F04DFDF78EBAA9
:102EE0000000F07F645F09000000F03F660500000D
:102EF000763C7935EF39EA3D0000E0FE422EE63FB0
:102F00005555D53F0000E03F86EBF9FFFE0300007A
:102F1000FC0300001CB54FF4A06101F00702314B27
:102F200018684FF6FF0318402F4B034343EA022073
:102F30002C4B186000BF01210846FEF763FC0121FD
:102F40002A48FDF743FF2A48FFF7E2F8FEF7B8FBEF
:102F5000FEF770F94FF41650FFF710FA25A0FFF7AF
:102F600009FBFEF71BFE012803D126A0FFF702FB99
:102F70000AE000202C210A231822CDE900100421A8
:102F800040F2E470FEF77AFEFEF7ECF9FEF75AFF26
:102F900042F210714820FFF7A5F921E01E480068B1
:102FA0001D494968884204D9FEF766FB00201A498A
:102FB00008601A48006819494968884210D91848B9
:102FC000018818A0FFF7D6FAFDF7CEFC0546FDF7FD
:102FD0002DFB84B22046FDF7BDFD00200F4908609F
:102FE000DCE700000CED00E00000FA050002300014
:102FF00040190100555341525431206973206F6BC1
:103000000D0A000052544320496E697420657272A3
:103010006F720D0A00000000040000200C00002068
:103020004200002025640D0A0000000001480068ED
:10303000704700000000002002468A4201DD084679
:1030400070471046FCE7704708B504226946052022
:10305000FDF73CFD9DF801009DF8001040EA0120BD
:10306000054908809DF803009DF8021040EA012000
:103070000249088008BD00004200002044000020F2
:1030800000200549086005490860054908600549B0
:103090000870054908707047D4000020CC0000205B
:1030A000C8000020D0000020D800002070B50446E1
:1030B0000720FEF781FE05462CB145F040010720B0
:1030C000FFF736FA04E025F040010720FFF730FA59
:1030D00070BD70B504460D4644EA0510C1B2092022
:1030E000FFF726FA70BD70B504460720FEF764FEB0
:1030F000054605F0FC0040EA04010720FFF718FA36
:1031000070BD10B5044621460620FFF711FA10BD28
:10311000014A0168116070476400002070B50446E0
:103120000720FEF749FE054605F0E30040EA84006B
:10313000C1B20720FFF7FCF970BD2DE9F04105464B
:103140000E461446276821683068FDF743F880462C
:103150002946FCF7E7FF206039462068FDF734F880
:10316000BDE8F08110B5FFF76FFF10BD0003030647
:1031700001040602050003051F1C1F1E1F1E1F1F42
:103180001E1F1E1F0000000004FA97999999D93F4D
:10319000AF788E1DC571CC3F9FC678D0099AC33FCA
:1031A000935555555555E53F599322942449D23F9F
:1031B000DE03CB966446C73F44523EDF12F1C23F66
:1031C0000000000000000000E831000800000020BE
:1031D000E400000062260008CC320008E400002071
:1031E0003404000072260008000000000000000007
:1031F000F4010000000000000A00000000000000D0
:10320000000000000102030401020304060708098C
:10321000020406080000000000007878050501009F
:10322000FFFF00F8000000000500000000000000A3
:10323000000000000000000000000000000000008E
:10324000000000000000000000000000000000007E
:10325000000000000000000000000000000000006E
:10326000000000000000000000000000000000005E
:10327000000000000000000000000000000000004E
:103280000000000064646464636363636363626298
:103290006262626161616161616060606060605F23
:1032A0005F5F5F5F5F5E5E5E5E5E5D5D5D5D5D009C
:1032B000000000000000000000000000000000000E
:0C32C00000000000000000000000000002
:04000005080000ED02
:00000001FF
